{
  "_format": "hh-sol-artifact-1",
  "contractName": "Rebase",
  "sourceName": "contracts/Rebase.sol",
  "abi": [
    {
      "inputs": [
        {
          "internalType": "address",
          "name": "oracleAddress",
          "type": "address"
        },
        {
          "internalType": "address",
          "name": "stablecoinAddress",
          "type": "address"
        }
      ],
      "stateMutability": "nonpayable",
      "type": "constructor"
    },
    {
      "inputs": [],
      "name": "EnforcedPause",
      "type": "error"
    },
    {
      "inputs": [],
      "name": "ExpectedPause",
      "type": "error"
    },
    {
      "inputs": [
        {
          "internalType": "address",
          "name": "owner",
          "type": "address"
        }
      ],
      "name": "OwnableInvalidOwner",
      "type": "error"
    },
    {
      "inputs": [
        {
          "internalType": "address",
          "name": "account",
          "type": "address"
        }
      ],
      "name": "OwnableUnauthorizedAccount",
      "type": "error"
    },
    {
      "anonymous": false,
      "inputs": [
        {
          "indexed": true,
          "internalType": "address",
          "name": "previousOwner",
          "type": "address"
        },
        {
          "indexed": true,
          "internalType": "address",
          "name": "newOwner",
          "type": "address"
        }
      ],
      "name": "OwnershipTransferred",
      "type": "event"
    },
    {
      "anonymous": false,
      "inputs": [
        {
          "indexed": false,
          "internalType": "address",
          "name": "account",
          "type": "address"
        }
      ],
      "name": "Paused",
      "type": "event"
    },
    {
      "anonymous": false,
      "inputs": [
        {
          "indexed": false,
          "internalType": "address",
          "name": "account",
          "type": "address"
        }
      ],
      "name": "Unpaused",
      "type": "event"
    },
    {
      "anonymous": false,
      "inputs": [
        {
          "indexed": true,
          "internalType": "uint256",
          "name": "timestamp",
          "type": "uint256"
        },
        {
          "indexed": false,
          "internalType": "uint256",
          "name": "oldSupply",
          "type": "uint256"
        },
        {
          "indexed": false,
          "internalType": "uint256",
          "name": "newSupply",
          "type": "uint256"
        }
      ],
      "name": "Updated",
      "type": "event"
    },
    {
      "inputs": [],
      "name": "deposit",
      "outputs": [],
      "stateMutability": "payable",
      "type": "function"
    },
    {
      "inputs": [
        {
          "internalType": "address",
          "name": "",
          "type": "address"
        }
      ],
      "name": "ethBalance",
      "outputs": [
        {
          "internalType": "uint256",
          "name": "",
          "type": "uint256"
        }
      ],
      "stateMutability": "view",
      "type": "function"
    },
    {
      "inputs": [
        {
          "internalType": "uint256",
          "name": "weisPerPenny",
          "type": "uint256"
        }
      ],
      "name": "getParity",
      "outputs": [
        {
          "internalType": "uint256",
          "name": "",
          "type": "uint256"
        }
      ],
      "stateMutability": "view",
      "type": "function"
    },
    {
      "inputs": [
        {
          "internalType": "uint256",
          "name": "weisPerPenny",
          "type": "uint256"
        }
      ],
      "name": "initialize",
      "outputs": [],
      "stateMutability": "payable",
      "type": "function"
    },
    {
      "inputs": [],
      "name": "lastUpdate",
      "outputs": [
        {
          "internalType": "uint256",
          "name": "",
          "type": "uint256"
        }
      ],
      "stateMutability": "view",
      "type": "function"
    },
    {
      "inputs": [],
      "name": "oracle",
      "outputs": [
        {
          "internalType": "address",
          "name": "",
          "type": "address"
        }
      ],
      "stateMutability": "view",
      "type": "function"
    },
    {
      "inputs": [],
      "name": "owner",
      "outputs": [
        {
          "internalType": "address",
          "name": "",
          "type": "address"
        }
      ],
      "stateMutability": "view",
      "type": "function"
    },
    {
      "inputs": [],
      "name": "pause",
      "outputs": [],
      "stateMutability": "nonpayable",
      "type": "function"
    },
    {
      "inputs": [],
      "name": "paused",
      "outputs": [
        {
          "internalType": "bool",
          "name": "",
          "type": "bool"
        }
      ],
      "stateMutability": "view",
      "type": "function"
    },
    {
      "inputs": [],
      "name": "renounceOwnership",
      "outputs": [],
      "stateMutability": "nonpayable",
      "type": "function"
    },
    {
      "inputs": [
        {
          "internalType": "address",
          "name": "newOracle",
          "type": "address"
        }
      ],
      "name": "setOracle",
      "outputs": [],
      "stateMutability": "nonpayable",
      "type": "function"
    },
    {
      "inputs": [
        {
          "internalType": "uint256",
          "name": "toleranceInSeconds",
          "type": "uint256"
        }
      ],
      "name": "setUpdateTolerance",
      "outputs": [],
      "stateMutability": "nonpayable",
      "type": "function"
    },
    {
      "inputs": [],
      "name": "stablecoin",
      "outputs": [
        {
          "internalType": "address",
          "name": "",
          "type": "address"
        }
      ],
      "stateMutability": "view",
      "type": "function"
    },
    {
      "inputs": [
        {
          "internalType": "address",
          "name": "newOwner",
          "type": "address"
        }
      ],
      "name": "transferOwnership",
      "outputs": [],
      "stateMutability": "nonpayable",
      "type": "function"
    },
    {
      "inputs": [],
      "name": "unpause",
      "outputs": [],
      "stateMutability": "nonpayable",
      "type": "function"
    },
    {
      "inputs": [
        {
          "internalType": "uint256",
          "name": "weisPerPenny",
          "type": "uint256"
        }
      ],
      "name": "update",
      "outputs": [],
      "stateMutability": "nonpayable",
      "type": "function"
    },
    {
      "inputs": [
        {
          "internalType": "uint256",
          "name": "amountEth",
          "type": "uint256"
        }
      ],
      "name": "withdrawEth",
      "outputs": [],
      "stateMutability": "nonpayable",
      "type": "function"
    },
    {
      "inputs": [
        {
          "internalType": "uint256",
          "name": "amountUsda",
          "type": "uint256"
        }
      ],
      "name": "withdrawUsda",
      "outputs": [],
      "stateMutability": "nonpayable",
      "type": "function"
    }
  ],
  "bytecode": "0x6080604052600060035561012c6004553480156200001c57600080fd5b506040516200226a3803806200226a83398181016040528101906200004291906200029c565b33600073ffffffffffffffffffffffffffffffffffffffff168173ffffffffffffffffffffffffffffffffffffffff1603620000b85760006040517f1e4fbdf7000000000000000000000000000000000000000000000000000000008152600401620000af9190620002f4565b60405180910390fd5b620000c9816200016e60201b60201c565b5060008060146101000a81548160ff02191690831515021790555081600160006101000a81548173ffffffffffffffffffffffffffffffffffffffff021916908373ffffffffffffffffffffffffffffffffffffffff16021790555080600260006101000a81548173ffffffffffffffffffffffffffffffffffffffff021916908373ffffffffffffffffffffffffffffffffffffffff160217905550505062000311565b60008060009054906101000a900473ffffffffffffffffffffffffffffffffffffffff169050816000806101000a81548173ffffffffffffffffffffffffffffffffffffffff021916908373ffffffffffffffffffffffffffffffffffffffff1602179055508173ffffffffffffffffffffffffffffffffffffffff168173ffffffffffffffffffffffffffffffffffffffff167f8be0079c531659141344cd1fd0a4f28419497f9722a3daafe3b4186f6b6457e060405160405180910390a35050565b600080fd5b600073ffffffffffffffffffffffffffffffffffffffff82169050919050565b6000620002648262000237565b9050919050565b620002768162000257565b81146200028257600080fd5b50565b60008151905062000296816200026b565b92915050565b60008060408385031215620002b657620002b562000232565b5b6000620002c68582860162000285565b9250506020620002d98582860162000285565b9150509250929050565b620002ee8162000257565b82525050565b60006020820190506200030b6000830184620002e3565b92915050565b611f4980620003216000396000f3fe6080604052600436106101095760003560e01c80638456cb5911610095578063d0e30db011610064578063d0e30db014610309578063d8f3790f14610313578063e9cbd82214610350578063f2fde38b1461037b578063fe4b84df146103a457610109565b80638456cb59146102735780638da5cb5b1461028a578063c0463711146102b5578063c311d049146102e057610109565b80636791f8b6116100dc5780636791f8b6146101b6578063715018a6146101df5780637adbf973146101f65780637dc0d1d01461021f57806382ab890a1461024a57610109565b80633402995a1461010e5780633a7b5d9a1461014b5780633f4ba83a146101745780635c975abb1461018b575b600080fd5b34801561011a57600080fd5b50610135600480360381019061013091906117c3565b6103c0565b60405161014291906117ff565b60405180910390f35b34801561015757600080fd5b50610172600480360381019061016d91906117c3565b610517565b005b34801561018057600080fd5b5061018961056c565b005b34801561019757600080fd5b506101a061057e565b6040516101ad9190611835565b60405180910390f35b3480156101c257600080fd5b506101dd60048036038101906101d891906117c3565b610594565b005b3480156101eb57600080fd5b506101f46108a2565b005b34801561020257600080fd5b5061021d600480360381019061021891906118ae565b6108b6565b005b34801561022b57600080fd5b50610234610971565b60405161024191906118ea565b60405180910390f35b34801561025657600080fd5b50610271600480360381019061026c91906117c3565b610997565b005b34801561027f57600080fd5b50610288610b1a565b005b34801561029657600080fd5b5061029f610b2c565b6040516102ac91906118ea565b60405180910390f35b3480156102c157600080fd5b506102ca610b55565b6040516102d791906117ff565b60405180910390f35b3480156102ec57600080fd5b50610307600480360381019061030291906117c3565b610b5b565b005b610311610e07565b005b34801561031f57600080fd5b5061033a600480360381019061033591906118ae565b611020565b60405161034791906117ff565b60405180910390f35b34801561035c57600080fd5b50610365611038565b60405161037291906118ea565b60405180910390f35b34801561038757600080fd5b506103a2600480360381019061039d91906118ae565b61105e565b005b6103be60048036038101906103b991906117c3565b6110e4565b005b600080820361045d57600160009054906101000a900473ffffffffffffffffffffffffffffffffffffffff1673ffffffffffffffffffffffffffffffffffffffff16633a9d03026040518163ffffffff1660e01b8152600401602060405180830381865afa158015610436573d6000803e3d6000fd5b505050506040513d601f19601f8201168201806040525081019061045a919061191a565b91505b814761046991906119a5565b6064600260009054906101000a900473ffffffffffffffffffffffffffffffffffffffff1673ffffffffffffffffffffffffffffffffffffffff166318160ddd6040518163ffffffff1660e01b8152600401602060405180830381865afa1580156104d8573d6000803e3d6000fd5b505050506040513d601f19601f820116820180604052508101906104fc919061191a565b61050691906119d6565b61051091906119a5565b9050919050565b61051f61125a565b60008111610562576040517f08c379a000000000000000000000000000000000000000000000000000000000815260040161055990611a9b565b60405180910390fd5b8060048190555050565b61057461125a565b61057c6112e1565b565b60008060149054906101000a900460ff16905090565b61059c611343565b600454426105aa9190611abb565b60035410156105ee576040517f08c379a00000000000000000000000000000000000000000000000000000000081526004016105e590611b61565b60405180910390fd5b80600260009054906101000a900473ffffffffffffffffffffffffffffffffffffffff1673ffffffffffffffffffffffffffffffffffffffff166370a08231336040518263ffffffff1660e01b815260040161064a91906118ea565b602060405180830381865afa158015610667573d6000803e3d6000fd5b505050506040513d601f19601f8201168201806040525081019061068b919061191a565b10156106cc576040517f08c379a00000000000000000000000000000000000000000000000000000000081526004016106c390611bcd565b60405180910390fd5b600260009054906101000a900473ffffffffffffffffffffffffffffffffffffffff1673ffffffffffffffffffffffffffffffffffffffff16639dc29fac33836040518363ffffffff1660e01b8152600401610729929190611bed565b600060405180830381600087803b15801561074357600080fd5b505af1158015610757573d6000803e3d6000fd5b505050506000600160009054906101000a900473ffffffffffffffffffffffffffffffffffffffff1673ffffffffffffffffffffffffffffffffffffffff16633a9d03026040518163ffffffff1660e01b8152600401602060405180830381865afa1580156107ca573d6000803e3d6000fd5b505050506040513d601f19601f820116820180604052508101906107ee919061191a565b9050600081836107fe91906119d6565b905080600560003373ffffffffffffffffffffffffffffffffffffffff1673ffffffffffffffffffffffffffffffffffffffff168152602001908152602001600020600082825461084f9190611abb565b925050819055503373ffffffffffffffffffffffffffffffffffffffff166108fc829081150290604051600060405180830381858888f1935050505015801561089c573d6000803e3d6000fd5b50505050565b6108aa61125a565b6108b46000611384565b565b6108be61125a565b600073ffffffffffffffffffffffffffffffffffffffff168173ffffffffffffffffffffffffffffffffffffffff160361092d576040517f08c379a000000000000000000000000000000000000000000000000000000000815260040161092490611c62565b60405180910390fd5b80600160006101000a81548173ffffffffffffffffffffffffffffffffffffffff021916908373ffffffffffffffffffffffffffffffffffffffff16021790555050565b600160009054906101000a900473ffffffffffffffffffffffffffffffffffffffff1681565b600160009054906101000a900473ffffffffffffffffffffffffffffffffffffffff1673ffffffffffffffffffffffffffffffffffffffff163373ffffffffffffffffffffffffffffffffffffffff1614610a27576040517f08c379a0000000000000000000000000000000000000000000000000000000008152600401610a1e90611cf4565b60405180910390fd5b6000600260009054906101000a900473ffffffffffffffffffffffffffffffffffffffff1673ffffffffffffffffffffffffffffffffffffffff166318160ddd6040518163ffffffff1660e01b8152600401602060405180830381865afa158015610a96573d6000803e3d6000fd5b505050506040513d601f19601f82011682018060405250810190610aba919061191a565b90506000610ac783611448565b905060008114610b1557426003819055506003547f6642e1e496629680de50fd66c266da5b2787a13fe171acf2c954ed368c852bc28383604051610b0c929190611d14565b60405180910390a25b505050565b610b2261125a565b610b2a6116dd565b565b60008060009054906101000a900473ffffffffffffffffffffffffffffffffffffffff16905090565b60035481565b610b63611343565b60045442610b719190611abb565b6003541015610bb5576040517f08c379a0000000000000000000000000000000000000000000000000000000008152600401610bac90611b61565b60405180910390fd5b80600560003373ffffffffffffffffffffffffffffffffffffffff1673ffffffffffffffffffffffffffffffffffffffff168152602001908152602001600020541015610c37576040517f08c379a0000000000000000000000000000000000000000000000000000000008152600401610c2e90611d89565b60405180910390fd5b80600560003373ffffffffffffffffffffffffffffffffffffffff1673ffffffffffffffffffffffffffffffffffffffff1681526020019081526020016000206000828254610c869190611abb565b925050819055506000600160009054906101000a900473ffffffffffffffffffffffffffffffffffffffff1673ffffffffffffffffffffffffffffffffffffffff16633a9d03026040518163ffffffff1660e01b8152600401602060405180830381865afa158015610cfc573d6000803e3d6000fd5b505050506040513d601f19601f82011682018060405250810190610d20919061191a565b9050600260009054906101000a900473ffffffffffffffffffffffffffffffffffffffff1673ffffffffffffffffffffffffffffffffffffffff16639dc29fac338385610d6d91906119a5565b6040518363ffffffff1660e01b8152600401610d8a929190611bed565b600060405180830381600087803b158015610da457600080fd5b505af1158015610db8573d6000803e3d6000fd5b505050503373ffffffffffffffffffffffffffffffffffffffff166108fc839081150290604051600060405180830381858888f19350505050158015610e02573d6000803e3d6000fd5b505050565b610e0f611343565b60045442610e1d9190611abb565b6003541015610e61576040517f08c379a0000000000000000000000000000000000000000000000000000000008152600401610e5890611b61565b60405180910390fd5b6000600160009054906101000a900473ffffffffffffffffffffffffffffffffffffffff1673ffffffffffffffffffffffffffffffffffffffff16633a9d03026040518163ffffffff1660e01b8152600401602060405180830381865afa158015610ed0573d6000803e3d6000fd5b505050506040513d601f19601f82011682018060405250810190610ef4919061191a565b905080341015610f39576040517f08c379a0000000000000000000000000000000000000000000000000000000008152600401610f3090611df5565b60405180910390fd5b34600560003373ffffffffffffffffffffffffffffffffffffffff1673ffffffffffffffffffffffffffffffffffffffff1681526020019081526020016000208190555060008134610f8b91906119a5565b9050600260009054906101000a900473ffffffffffffffffffffffffffffffffffffffff1673ffffffffffffffffffffffffffffffffffffffff166340c10f1933836040518363ffffffff1660e01b8152600401610fea929190611bed565b600060405180830381600087803b15801561100457600080fd5b505af1158015611018573d6000803e3d6000fd5b505050505050565b60056020528060005260406000206000915090505481565b600260009054906101000a900473ffffffffffffffffffffffffffffffffffffffff1681565b61106661125a565b600073ffffffffffffffffffffffffffffffffffffffff168173ffffffffffffffffffffffffffffffffffffffff16036110d85760006040517f1e4fbdf70000000000000000000000000000000000000000000000000000000081526004016110cf91906118ea565b60405180910390fd5b6110e181611384565b50565b6110ec61125a565b6000811161112f576040517f08c379a000000000000000000000000000000000000000000000000000000000815260040161112690611e61565b60405180910390fd5b80341015611172576040517f08c379a000000000000000000000000000000000000000000000000000000000815260040161116990611ef3565b60405180910390fd5b34600560003373ffffffffffffffffffffffffffffffffffffffff1673ffffffffffffffffffffffffffffffffffffffff16815260200190815260200160002081905550600260009054906101000a900473ffffffffffffffffffffffffffffffffffffffff1673ffffffffffffffffffffffffffffffffffffffff166340c10f1933833461120191906119a5565b6040518363ffffffff1660e01b815260040161121e929190611bed565b600060405180830381600087803b15801561123857600080fd5b505af115801561124c573d6000803e3d6000fd5b505050504260038190555050565b611262611740565b73ffffffffffffffffffffffffffffffffffffffff16611280610b2c565b73ffffffffffffffffffffffffffffffffffffffff16146112df576112a3611740565b6040517f118cdaa70000000000000000000000000000000000000000000000000000000081526004016112d691906118ea565b60405180910390fd5b565b6112e9611748565b60008060146101000a81548160ff0219169083151502179055507f5db9ee0a495bf2e6ff9c91a7834c1ba4fdd244a5e8aa4e537bd38aeae4b073aa61132c611740565b60405161133991906118ea565b60405180910390a1565b61134b61057e565b15611382576040517fd93c066500000000000000000000000000000000000000000000000000000000815260040160405180910390fd5b565b60008060009054906101000a900473ffffffffffffffffffffffffffffffffffffffff169050816000806101000a81548173ffffffffffffffffffffffffffffffffffffffff021916908373ffffffffffffffffffffffffffffffffffffffff1602179055508173ffffffffffffffffffffffffffffffffffffffff168173ffffffffffffffffffffffffffffffffffffffff167f8be0079c531659141344cd1fd0a4f28419497f9722a3daafe3b4186f6b6457e060405160405180910390a35050565b600080611454836103c0565b905060008103611470576114666116dd565b60009150506116d8565b6000600260009054906101000a900473ffffffffffffffffffffffffffffffffffffffff16905060008173ffffffffffffffffffffffffffffffffffffffff166318160ddd6040518163ffffffff1660e01b8152600401602060405180830381865afa1580156114e4573d6000803e3d6000fd5b505050506040513d601f19601f82011682018060405250810190611508919061191a565b90506064830361151d578093505050506116d8565b60648311156115c1578173ffffffffffffffffffffffffffffffffffffffff16639dc29fac61154a610b2c565b606480876115589190611abb565b8561156391906119d6565b61156d91906119a5565b6040518363ffffffff1660e01b815260040161158a929190611bed565b600060405180830381600087803b1580156115a457600080fd5b505af11580156115b8573d6000803e3d6000fd5b50505050611663565b6064831015611662578173ffffffffffffffffffffffffffffffffffffffff166340c10f196115ee610b2c565b60648660646115fd9190611abb565b8561160891906119d6565b61161291906119a5565b6040518363ffffffff1660e01b815260040161162f929190611bed565b600060405180830381600087803b15801561164957600080fd5b505af115801561165d573d6000803e3d6000fd5b505050505b5b8173ffffffffffffffffffffffffffffffffffffffff166318160ddd6040518163ffffffff1660e01b8152600401602060405180830381865afa1580156116ae573d6000803e3d6000fd5b505050506040513d601f19601f820116820180604052508101906116d2919061191a565b93505050505b919050565b6116e5611343565b6001600060146101000a81548160ff0219169083151502179055507f62e78cea01bee320cd4e420270b5ea74000d11b0c9f74754ebdbfc544b05a258611729611740565b60405161173691906118ea565b60405180910390a1565b600033905090565b61175061057e565b611786576040517f8dfc202b00000000000000000000000000000000000000000000000000000000815260040160405180910390fd5b565b600080fd5b6000819050919050565b6117a08161178d565b81146117ab57600080fd5b50565b6000813590506117bd81611797565b92915050565b6000602082840312156117d9576117d8611788565b5b60006117e7848285016117ae565b91505092915050565b6117f98161178d565b82525050565b600060208201905061181460008301846117f0565b92915050565b60008115159050919050565b61182f8161181a565b82525050565b600060208201905061184a6000830184611826565b92915050565b600073ffffffffffffffffffffffffffffffffffffffff82169050919050565b600061187b82611850565b9050919050565b61188b81611870565b811461189657600080fd5b50565b6000813590506118a881611882565b92915050565b6000602082840312156118c4576118c3611788565b5b60006118d284828501611899565b91505092915050565b6118e481611870565b82525050565b60006020820190506118ff60008301846118db565b92915050565b60008151905061191481611797565b92915050565b6000602082840312156119305761192f611788565b5b600061193e84828501611905565b91505092915050565b7f4e487b7100000000000000000000000000000000000000000000000000000000600052601260045260246000fd5b7f4e487b7100000000000000000000000000000000000000000000000000000000600052601160045260246000fd5b60006119b08261178d565b91506119bb8361178d565b9250826119cb576119ca611947565b5b828204905092915050565b60006119e18261178d565b91506119ec8361178d565b92508282026119fa8161178d565b91508282048414831517611a1157611a10611976565b5b5092915050565b600082825260208201905092915050565b7f746f6c6572616e6365496e5365636f6e64732063616e6e6f74206265207a657260008201527f6f00000000000000000000000000000000000000000000000000000000000000602082015250565b6000611a85602183611a18565b9150611a9082611a29565b604082019050919050565b60006020820190508181036000830152611ab481611a78565b9050919050565b6000611ac68261178d565b9150611ad18361178d565b9250828203905081811115611ae957611ae8611976565b5b92915050565b7f52656261736520636f6e7472616374206973207061757365642e20547279206160008201527f6761696e206c61746572206f7220636f6e74616374207468652061646d696e00602082015250565b6000611b4b603f83611a18565b9150611b5682611aef565b604082019050919050565b60006020820190508181036000830152611b7a81611b3e565b9050919050565b7f496e73756666696369656e7420555344412062616c616e636500000000000000600082015250565b6000611bb7601983611a18565b9150611bc282611b81565b602082019050919050565b60006020820190508181036000830152611be681611baa565b9050919050565b6000604082019050611c0260008301856118db565b611c0f60208301846117f0565b9392505050565b7f4f7261636c6520616464726573732063616e6e6f74206265207a65726f000000600082015250565b6000611c4c601d83611a18565b9150611c5782611c16565b602082019050919050565b60006020820190508181036000830152611c7b81611c3f565b9050919050565b7f4f6e6c7920746865206f7261636c652063616e206d616b65207468697320636160008201527f6c6c000000000000000000000000000000000000000000000000000000000000602082015250565b6000611cde602283611a18565b9150611ce982611c82565b604082019050919050565b60006020820190508181036000830152611d0d81611cd1565b9050919050565b6000604082019050611d2960008301856117f0565b611d3660208301846117f0565b9392505050565b7f496e73756666696369656e74204554482062616c616e63650000000000000000600082015250565b6000611d73601883611a18565b9150611d7e82611d3d565b602082019050919050565b60006020820190508181036000830152611da281611d66565b9050919050565b7f496e73756666696369656e74206465706f736974000000000000000000000000600082015250565b6000611ddf601483611a18565b9150611dea82611da9565b602082019050919050565b60006020820190508181036000830152611e0e81611dd2565b9050919050565b7f57656920726174696f2063616e6e6f74206265207a65726f0000000000000000600082015250565b6000611e4b601883611a18565b9150611e5682611e15565b602082019050919050565b60006020820190508181036000830152611e7a81611e3e565b9050919050565b7f56616c75652063616e6e6f74206265206c657373207468616e2077656920726160008201527f74696f0000000000000000000000000000000000000000000000000000000000602082015250565b6000611edd602383611a18565b9150611ee882611e81565b604082019050919050565b60006020820190508181036000830152611f0c81611ed0565b905091905056fea26469706673582212205b7e222c90cc4ebbdff9317637fb439d8cea367a3858fd6132ec74ad5bc6e63864736f6c63430008140033",
  "linkReferences": {},
  "deployedLinkReferences": {}
}