{
  "_format": "hh-sol-artifact-1",
  "contractName": "WeiUsdOracle",
  "sourceName": "contracts/WeiUsdOracle.sol",
  "abi": [
    {
      "inputs": [
        {
          "internalType": "uint256",
          "name": "ethPriceInPenny",
          "type": "uint256"
        }
      ],
      "stateMutability": "nonpayable",
      "type": "constructor"
    },
    {
      "inputs": [
        {
          "internalType": "address",
          "name": "owner",
          "type": "address"
        }
      ],
      "name": "OwnableInvalidOwner",
      "type": "error"
    },
    {
      "inputs": [
        {
          "internalType": "address",
          "name": "account",
          "type": "address"
        }
      ],
      "name": "OwnableUnauthorizedAccount",
      "type": "error"
    },
    {
      "anonymous": false,
      "inputs": [
        {
          "indexed": false,
          "internalType": "address[]",
          "name": "subscribers",
          "type": "address[]"
        }
      ],
      "name": "AllUpdated",
      "type": "event"
    },
    {
      "anonymous": false,
      "inputs": [
        {
          "indexed": true,
          "internalType": "address",
          "name": "previousOwner",
          "type": "address"
        },
        {
          "indexed": true,
          "internalType": "address",
          "name": "newOwner",
          "type": "address"
        }
      ],
      "name": "OwnershipTransferred",
      "type": "event"
    },
    {
      "anonymous": false,
      "inputs": [
        {
          "indexed": true,
          "internalType": "address",
          "name": "subscriber",
          "type": "address"
        }
      ],
      "name": "Subscribed",
      "type": "event"
    },
    {
      "anonymous": false,
      "inputs": [
        {
          "indexed": true,
          "internalType": "address",
          "name": "subscriber",
          "type": "address"
        }
      ],
      "name": "Unsubscribed",
      "type": "event"
    },
    {
      "inputs": [],
      "name": "getWeiRatio",
      "outputs": [
        {
          "internalType": "uint256",
          "name": "",
          "type": "uint256"
        }
      ],
      "stateMutability": "view",
      "type": "function"
    },
    {
      "inputs": [],
      "name": "lastUpdate",
      "outputs": [
        {
          "internalType": "uint256",
          "name": "",
          "type": "uint256"
        }
      ],
      "stateMutability": "view",
      "type": "function"
    },
    {
      "inputs": [],
      "name": "owner",
      "outputs": [
        {
          "internalType": "address",
          "name": "",
          "type": "address"
        }
      ],
      "stateMutability": "view",
      "type": "function"
    },
    {
      "inputs": [],
      "name": "renounceOwnership",
      "outputs": [],
      "stateMutability": "nonpayable",
      "type": "function"
    },
    {
      "inputs": [
        {
          "internalType": "uint256",
          "name": "ethPriceInPenny",
          "type": "uint256"
        }
      ],
      "name": "setEthPrice",
      "outputs": [],
      "stateMutability": "nonpayable",
      "type": "function"
    },
    {
      "inputs": [
        {
          "internalType": "address",
          "name": "subscriber",
          "type": "address"
        }
      ],
      "name": "subscribe",
      "outputs": [],
      "stateMutability": "nonpayable",
      "type": "function"
    },
    {
      "inputs": [
        {
          "internalType": "uint256",
          "name": "",
          "type": "uint256"
        }
      ],
      "name": "subscribers",
      "outputs": [
        {
          "internalType": "address",
          "name": "",
          "type": "address"
        }
      ],
      "stateMutability": "view",
      "type": "function"
    },
    {
      "inputs": [
        {
          "internalType": "address",
          "name": "newOwner",
          "type": "address"
        }
      ],
      "name": "transferOwnership",
      "outputs": [],
      "stateMutability": "nonpayable",
      "type": "function"
    },
    {
      "inputs": [
        {
          "internalType": "address",
          "name": "subscriber",
          "type": "address"
        }
      ],
      "name": "unsubscribe",
      "outputs": [],
      "stateMutability": "nonpayable",
      "type": "function"
    }
  ],
  "bytecode": "0x6080604052600060015560006002553480156200001b57600080fd5b50604051620012ae380380620012ae833981810160405281019062000041919062000217565b33600073ffffffffffffffffffffffffffffffffffffffff168173ffffffffffffffffffffffffffffffffffffffff1603620000b75760006040517f1e4fbdf7000000000000000000000000000000000000000000000000000000008152600401620000ae91906200028e565b60405180910390fd5b620000c881620000f460201b60201c565b506000620000dc82620001b860201b60201c565b90508060018190555042600281905550505062000312565b60008060009054906101000a900473ffffffffffffffffffffffffffffffffffffffff169050816000806101000a81548173ffffffffffffffffffffffffffffffffffffffff021916908373ffffffffffffffffffffffffffffffffffffffff1602179055508173ffffffffffffffffffffffffffffffffffffffff168173ffffffffffffffffffffffffffffffffffffffff167f8be0079c531659141344cd1fd0a4f28419497f9722a3daafe3b4186f6b6457e060405160405180910390a35050565b600081670de0b6b3a7640000620001d09190620002da565b9050919050565b600080fd5b6000819050919050565b620001f181620001dc565b8114620001fd57600080fd5b50565b6000815190506200021181620001e6565b92915050565b60006020828403121562000230576200022f620001d7565b5b6000620002408482850162000200565b91505092915050565b600073ffffffffffffffffffffffffffffffffffffffff82169050919050565b6000620002768262000249565b9050919050565b620002888162000269565b82525050565b6000602082019050620002a560008301846200027d565b92915050565b7f4e487b7100000000000000000000000000000000000000000000000000000000600052601260045260246000fd5b6000620002e782620001dc565b9150620002f483620001dc565b925082620003075762000306620002ab565b5b828204905092915050565b610f8c80620003226000396000f3fe608060405234801561001057600080fd5b50600436106100925760003560e01c8063715018a611610066578063715018a61461011d5780637262561c146101275780638da5cb5b14610143578063c046371114610161578063f2fde38b1461017f57610092565b80629f9262146100975780633a9d0302146100b357806341a7726a146100d157806359221a68146100ed575b600080fd5b6100b160048036038101906100ac9190610aa9565b61019b565b005b6100bb6103c5565b6040516100c89190610ae5565b60405180910390f35b6100eb60048036038101906100e69190610b5e565b6103cf565b005b61010760048036038101906101029190610aa9565b61065e565b6040516101149190610b9a565b60405180910390f35b61012561069d565b005b610141600480360381019061013c9190610b5e565b6106b1565b005b61014b610849565b6040516101589190610b9a565b60405180910390f35b610169610872565b6040516101769190610ae5565b60405180910390f35b61019960048036038101906101949190610b5e565b610878565b005b600081116101de576040517f08c379a00000000000000000000000000000000000000000000000000000000081526004016101d590610c12565b60405180910390fd5b60006101e9826108fe565b90506000811161022e576040517f08c379a000000000000000000000000000000000000000000000000000000000815260040161022590610c7e565b60405180910390fd5b806001819055504260028190555060005b60038054905081101561037957600073ffffffffffffffffffffffffffffffffffffffff166003828154811061027857610277610c9e565b5b9060005260206000200160009054906101000a900473ffffffffffffffffffffffffffffffffffffffff1673ffffffffffffffffffffffffffffffffffffffff161461036857600381815481106102d2576102d1610c9e565b5b9060005260206000200160009054906101000a900473ffffffffffffffffffffffffffffffffffffffff1673ffffffffffffffffffffffffffffffffffffffff166382ab890a836040518263ffffffff1660e01b81526004016103359190610ae5565b600060405180830381600087803b15801561034f57600080fd5b505af1158015610363573d6000803e3d6000fd5b505050505b8061037290610cfc565b905061023f565b50600060038054905011156103c1577f16021d6e2bead68861d6649a1d5d1b41bffb1d77e2ca4461a1804bf00cb75ef960036040516103b89190610e68565b60405180910390a15b5050565b6000600154905090565b6103d761091b565b600073ffffffffffffffffffffffffffffffffffffffff168173ffffffffffffffffffffffffffffffffffffffff1603610446576040517f08c379a000000000000000000000000000000000000000000000000000000000815260040161043d90610ed6565b60405180910390fd5b8073ffffffffffffffffffffffffffffffffffffffff167fa88fac53823b534c72d6958345adbe6801e072750d83b490d52ebbac51473a6360405160405180910390a260005b6003805490508110156105f657600073ffffffffffffffffffffffffffffffffffffffff16600382815481106104c5576104c4610c9e565b5b9060005260206000200160009054906101000a900473ffffffffffffffffffffffffffffffffffffffff1673ffffffffffffffffffffffffffffffffffffffff160361056e5781600382815481106105205761051f610c9e565b5b9060005260206000200160006101000a81548173ffffffffffffffffffffffffffffffffffffffff021916908373ffffffffffffffffffffffffffffffffffffffff1602179055505061065b565b8173ffffffffffffffffffffffffffffffffffffffff166003828154811061059957610598610c9e565b5b9060005260206000200160009054906101000a900473ffffffffffffffffffffffffffffffffffffffff1673ffffffffffffffffffffffffffffffffffffffff16036105e5575061065b565b806105ef90610cfc565b905061048c565b506003819080600181540180825580915050600190039060005260206000200160009091909190916101000a81548173ffffffffffffffffffffffffffffffffffffffff021916908373ffffffffffffffffffffffffffffffffffffffff1602179055505b50565b6003818154811061066e57600080fd5b906000526020600020016000915054906101000a900473ffffffffffffffffffffffffffffffffffffffff1681565b6106a561091b565b6106af60006109a2565b565b6106b961091b565b600073ffffffffffffffffffffffffffffffffffffffff168173ffffffffffffffffffffffffffffffffffffffff1603610728576040517f08c379a000000000000000000000000000000000000000000000000000000000815260040161071f90610ed6565b60405180910390fd5b60005b600380549050811015610844578173ffffffffffffffffffffffffffffffffffffffff166003828154811061076357610762610c9e565b5b9060005260206000200160009054906101000a900473ffffffffffffffffffffffffffffffffffffffff1673ffffffffffffffffffffffffffffffffffffffff160361083357600381815481106107bd576107bc610c9e565b5b9060005260206000200160006101000a81549073ffffffffffffffffffffffffffffffffffffffff02191690558173ffffffffffffffffffffffffffffffffffffffff167fae563681ccc696fae58fe830f401bc9c043a43ddb9f7c2830b32c3c70d9966e760405160405180910390a250610846565b8061083d90610cfc565b905061072b565b505b50565b60008060009054906101000a900473ffffffffffffffffffffffffffffffffffffffff16905090565b60025481565b61088061091b565b600073ffffffffffffffffffffffffffffffffffffffff168173ffffffffffffffffffffffffffffffffffffffff16036108f25760006040517f1e4fbdf70000000000000000000000000000000000000000000000000000000081526004016108e99190610b9a565b60405180910390fd5b6108fb816109a2565b50565b600081670de0b6b3a76400006109149190610f25565b9050919050565b610923610a66565b73ffffffffffffffffffffffffffffffffffffffff16610941610849565b73ffffffffffffffffffffffffffffffffffffffff16146109a057610964610a66565b6040517f118cdaa70000000000000000000000000000000000000000000000000000000081526004016109979190610b9a565b60405180910390fd5b565b60008060009054906101000a900473ffffffffffffffffffffffffffffffffffffffff169050816000806101000a81548173ffffffffffffffffffffffffffffffffffffffff021916908373ffffffffffffffffffffffffffffffffffffffff1602179055508173ffffffffffffffffffffffffffffffffffffffff168173ffffffffffffffffffffffffffffffffffffffff167f8be0079c531659141344cd1fd0a4f28419497f9722a3daafe3b4186f6b6457e060405160405180910390a35050565b600033905090565b600080fd5b6000819050919050565b610a8681610a73565b8114610a9157600080fd5b50565b600081359050610aa381610a7d565b92915050565b600060208284031215610abf57610abe610a6e565b5b6000610acd84828501610a94565b91505092915050565b610adf81610a73565b82525050565b6000602082019050610afa6000830184610ad6565b92915050565b600073ffffffffffffffffffffffffffffffffffffffff82169050919050565b6000610b2b82610b00565b9050919050565b610b3b81610b20565b8114610b4657600080fd5b50565b600081359050610b5881610b32565b92915050565b600060208284031215610b7457610b73610a6e565b5b6000610b8284828501610b49565b91505092915050565b610b9481610b20565b82525050565b6000602082019050610baf6000830184610b8b565b92915050565b600082825260208201905092915050565b7f4554482070726963652063616e6e6f74206265207a65726f0000000000000000600082015250565b6000610bfc601883610bb5565b9150610c0782610bc6565b602082019050919050565b60006020820190508181036000830152610c2b81610bef565b9050919050565b7f57656920526174696f2063616e6e6f74206265207a65726f0000000000000000600082015250565b6000610c68601883610bb5565b9150610c7382610c32565b602082019050919050565b60006020820190508181036000830152610c9781610c5b565b9050919050565b7f4e487b7100000000000000000000000000000000000000000000000000000000600052603260045260246000fd5b7f4e487b7100000000000000000000000000000000000000000000000000000000600052601160045260246000fd5b6000610d0782610a73565b91507fffffffffffffffffffffffffffffffffffffffffffffffffffffffffffffffff8203610d3957610d38610ccd565b5b600182019050919050565b600081549050919050565b600082825260208201905092915050565b60008190508160005260206000209050919050565b610d7e81610b20565b82525050565b6000610d908383610d75565b60208301905092915050565b60008160001c9050919050565b600073ffffffffffffffffffffffffffffffffffffffff82169050919050565b6000610ddc610dd783610d9c565b610da9565b9050919050565b6000610def8254610dc9565b9050919050565b6000600182019050919050565b6000610e0e82610d44565b610e188185610d4f565b9350610e2383610d60565b8060005b83811015610e5b57610e3882610de3565b610e428882610d84565b9750610e4d83610df6565b925050600181019050610e27565b5085935050505092915050565b60006020820190508181036000830152610e828184610e03565b905092915050565b7f537562736372696265722063616e6e6f74206265207a65726f00000000000000600082015250565b6000610ec0601983610bb5565b9150610ecb82610e8a565b602082019050919050565b60006020820190508181036000830152610eef81610eb3565b9050919050565b7f4e487b7100000000000000000000000000000000000000000000000000000000600052601260045260246000fd5b6000610f3082610a73565b9150610f3b83610a73565b925082610f4b57610f4a610ef6565b5b82820490509291505056fea2646970667358221220f56734021da2596b11c5bd1fb1d949084952b5176353bd44a0075c79f9a1af1564736f6c63430008140033",
  "linkReferences": {},
  "deployedLinkReferences": {}
}